{
  "_format": "hh-sol-artifact-1",
  "contractName": "Vendor",
  "sourceName": "contracts/Vender.sol",
  "abi": [
    {
      "inputs": [
        {
          "internalType": "address",
          "name": "tokenAddress",
          "type": "address"
        }
      ],
      "stateMutability": "nonpayable",
      "type": "constructor"
    },
    {
      "inputs": [
        {
          "internalType": "address",
          "name": "owner",
          "type": "address"
        }
      ],
      "name": "OwnableInvalidOwner",
      "type": "error"
    },
    {
      "inputs": [
        {
          "internalType": "address",
          "name": "account",
          "type": "address"
        }
      ],
      "name": "OwnableUnauthorizedAccount",
      "type": "error"
    },
    {
      "anonymous": false,
      "inputs": [
        {
          "indexed": false,
          "internalType": "address",
          "name": "buyer",
          "type": "address"
        },
        {
          "indexed": false,
          "internalType": "uint256",
          "name": "amountOfETH",
          "type": "uint256"
        },
        {
          "indexed": false,
          "internalType": "uint256",
          "name": "amountOfTokens",
          "type": "uint256"
        }
      ],
      "name": "BuyTokens",
      "type": "event"
    },
    {
      "anonymous": false,
      "inputs": [
        {
          "indexed": true,
          "internalType": "address",
          "name": "previousOwner",
          "type": "address"
        },
        {
          "indexed": true,
          "internalType": "address",
          "name": "newOwner",
          "type": "address"
        }
      ],
      "name": "OwnershipTransferred",
      "type": "event"
    },
    {
      "anonymous": false,
      "inputs": [
        {
          "indexed": false,
          "internalType": "address",
          "name": "seller",
          "type": "address"
        },
        {
          "indexed": false,
          "internalType": "uint256",
          "name": "amountOfTokens",
          "type": "uint256"
        },
        {
          "indexed": false,
          "internalType": "uint256",
          "name": "amountOfETH",
          "type": "uint256"
        }
      ],
      "name": "SellTokens",
      "type": "event"
    },
    {
      "anonymous": false,
      "inputs": [
        {
          "indexed": false,
          "internalType": "address",
          "name": "owner",
          "type": "address"
        },
        {
          "indexed": false,
          "internalType": "uint256",
          "name": "amount",
          "type": "uint256"
        }
      ],
      "name": "Withdraw",
      "type": "event"
    },
    {
      "inputs": [],
      "name": "buyTokens",
      "outputs": [],
      "stateMutability": "payable",
      "type": "function"
    },
    {
      "inputs": [],
      "name": "owner",
      "outputs": [
        {
          "internalType": "address",
          "name": "",
          "type": "address"
        }
      ],
      "stateMutability": "view",
      "type": "function"
    },
    {
      "inputs": [],
      "name": "renounceOwnership",
      "outputs": [],
      "stateMutability": "nonpayable",
      "type": "function"
    },
    {
      "inputs": [
        {
          "internalType": "uint256",
          "name": "tokenAmount",
          "type": "uint256"
        }
      ],
      "name": "sellTokens",
      "outputs": [],
      "stateMutability": "nonpayable",
      "type": "function"
    },
    {
      "inputs": [],
      "name": "tokensPerEth",
      "outputs": [
        {
          "internalType": "uint256",
          "name": "",
          "type": "uint256"
        }
      ],
      "stateMutability": "view",
      "type": "function"
    },
    {
      "inputs": [
        {
          "internalType": "address",
          "name": "newOwner",
          "type": "address"
        }
      ],
      "name": "transferOwnership",
      "outputs": [],
      "stateMutability": "nonpayable",
      "type": "function"
    },
    {
      "inputs": [],
      "name": "withdraw",
      "outputs": [],
      "stateMutability": "nonpayable",
      "type": "function"
    },
    {
      "inputs": [],
      "name": "yourToken",
      "outputs": [
        {
          "internalType": "contract IERC20",
          "name": "",
          "type": "address"
        }
      ],
      "stateMutability": "view",
      "type": "function"
    },
    {
      "stateMutability": "payable",
      "type": "receive"
    }
  ],
  "bytecode": "0x608060405234801561001057600080fd5b506040516112e43803806112e483398181016040528101906100329190610223565b33600073ffffffffffffffffffffffffffffffffffffffff168173ffffffffffffffffffffffffffffffffffffffff16036100a55760006040517f1e4fbdf700000000000000000000000000000000000000000000000000000000815260040161009c919061025f565b60405180910390fd5b6100b4816100fc60201b60201c565b5080600160006101000a81548173ffffffffffffffffffffffffffffffffffffffff021916908373ffffffffffffffffffffffffffffffffffffffff1602179055505061027a565b60008060009054906101000a900473ffffffffffffffffffffffffffffffffffffffff169050816000806101000a81548173ffffffffffffffffffffffffffffffffffffffff021916908373ffffffffffffffffffffffffffffffffffffffff1602179055508173ffffffffffffffffffffffffffffffffffffffff168173ffffffffffffffffffffffffffffffffffffffff167f8be0079c531659141344cd1fd0a4f28419497f9722a3daafe3b4186f6b6457e060405160405180910390a35050565b600080fd5b600073ffffffffffffffffffffffffffffffffffffffff82169050919050565b60006101f0826101c5565b9050919050565b610200816101e5565b811461020b57600080fd5b50565b60008151905061021d816101f7565b92915050565b600060208284031215610239576102386101c0565b5b60006102478482850161020e565b91505092915050565b610259816101e5565b82525050565b60006020820190506102746000830184610250565b92915050565b61105b806102896000396000f3fe60806040526004361061007f5760003560e01c80638da5cb5b1161004e5780638da5cb5b1461010d578063cbdd69b514610138578063d0febe4c14610163578063f2fde38b1461016d57610086565b80633ccfd60b1461008b5780636c11bcd3146100a2578063715018a6146100cb5780637879e84b146100e257610086565b3661008657005b600080fd5b34801561009757600080fd5b506100a0610196565b005b3480156100ae57600080fd5b506100c960048036038101906100c491906109a8565b610269565b005b3480156100d757600080fd5b506100e0610515565b005b3480156100ee57600080fd5b506100f7610529565b6040516101049190610a54565b60405180910390f35b34801561011957600080fd5b5061012261054f565b60405161012f9190610a90565b60405180910390f35b34801561014457600080fd5b5061014d610578565b60405161015a9190610aba565b60405180910390f35b61016b61057d565b005b34801561017957600080fd5b50610194600480360381019061018f9190610b01565b610794565b005b61019e61081a565b6000479050600081116101e6576040517f08c379a00000000000000000000000000000000000000000000000000000000081526004016101dd90610b8b565b60405180910390fd5b3373ffffffffffffffffffffffffffffffffffffffff166108fc829081150290604051600060405180830381858888f1935050505015801561022c573d6000803e3d6000fd5b507f884edad9ce6fa2440d8a54cc123490eb96d2768479d49ff9c7366125a9424364338260405161025e929190610bab565b60405180910390a150565b600081116102ac576040517f08c379a00000000000000000000000000000000000000000000000000000000081526004016102a390610c20565b60405180910390fd5b6000600160009054906101000a900473ffffffffffffffffffffffffffffffffffffffff1673ffffffffffffffffffffffffffffffffffffffff1663dd62ed3e33306040518363ffffffff1660e01b815260040161030b929190610c40565b602060405180830381865afa158015610328573d6000803e3d6000fd5b505050506040513d601f19601f8201168201806040525081019061034c9190610c7e565b905081811015610391576040517f08c379a000000000000000000000000000000000000000000000000000000000815260040161038890610cf7565b60405180910390fd5b60006064836103a09190610d75565b90506000479050818110156103ea576040517f08c379a00000000000000000000000000000000000000000000000000000000081526004016103e190610df2565b60405180910390fd5b600160009054906101000a900473ffffffffffffffffffffffffffffffffffffffff1673ffffffffffffffffffffffffffffffffffffffff166323b872dd3330876040518463ffffffff1660e01b815260040161044993929190610e12565b6020604051808303816000875af1158015610468573d6000803e3d6000fd5b505050506040513d601f19601f8201168201806040525081019061048c9190610e81565b503373ffffffffffffffffffffffffffffffffffffffff166108fc839081150290604051600060405180830381858888f193505050501580156104d3573d6000803e3d6000fd5b507fa24838acd4af5195a2396965dae5abf54e84e8c19f5698bb966ae64e29994ee533858460405161050793929190610eae565b60405180910390a150505050565b61051d61081a565b61052760006108a1565b565b600160009054906101000a900473ffffffffffffffffffffffffffffffffffffffff1681565b60008060009054906101000a900473ffffffffffffffffffffffffffffffffffffffff16905090565b606481565b600034116105c0576040517f08c379a00000000000000000000000000000000000000000000000000000000081526004016105b790610f31565b60405180910390fd5b60006064346105cf9190610f51565b90506000600160009054906101000a900473ffffffffffffffffffffffffffffffffffffffff1673ffffffffffffffffffffffffffffffffffffffff166370a08231306040518263ffffffff1660e01b815260040161062e9190610a90565b602060405180830381865afa15801561064b573d6000803e3d6000fd5b505050506040513d601f19601f8201168201806040525081019061066f9190610c7e565b9050818110156106b4576040517f08c379a00000000000000000000000000000000000000000000000000000000081526004016106ab90611005565b60405180910390fd5b600160009054906101000a900473ffffffffffffffffffffffffffffffffffffffff1673ffffffffffffffffffffffffffffffffffffffff1663a9059cbb33846040518363ffffffff1660e01b8152600401610711929190610bab565b6020604051808303816000875af1158015610730573d6000803e3d6000fd5b505050506040513d601f19601f820116820180604052508101906107549190610e81565b507f0a37b72bb67eee30e09084cf386f8a17817c57f620c3ab95fb25d6a20356ec7733348460405161078893929190610eae565b60405180910390a15050565b61079c61081a565b600073ffffffffffffffffffffffffffffffffffffffff168173ffffffffffffffffffffffffffffffffffffffff160361080e5760006040517f1e4fbdf70000000000000000000000000000000000000000000000000000000081526004016108059190610a90565b60405180910390fd5b610817816108a1565b50565b610822610965565b73ffffffffffffffffffffffffffffffffffffffff1661084061054f565b73ffffffffffffffffffffffffffffffffffffffff161461089f57610863610965565b6040517f118cdaa70000000000000000000000000000000000000000000000000000000081526004016108969190610a90565b60405180910390fd5b565b60008060009054906101000a900473ffffffffffffffffffffffffffffffffffffffff169050816000806101000a81548173ffffffffffffffffffffffffffffffffffffffff021916908373ffffffffffffffffffffffffffffffffffffffff1602179055508173ffffffffffffffffffffffffffffffffffffffff168173ffffffffffffffffffffffffffffffffffffffff167f8be0079c531659141344cd1fd0a4f28419497f9722a3daafe3b4186f6b6457e060405160405180910390a35050565b600033905090565b600080fd5b6000819050919050565b61098581610972565b811461099057600080fd5b50565b6000813590506109a28161097c565b92915050565b6000602082840312156109be576109bd61096d565b5b60006109cc84828501610993565b91505092915050565b600073ffffffffffffffffffffffffffffffffffffffff82169050919050565b6000819050919050565b6000610a1a610a15610a10846109d5565b6109f5565b6109d5565b9050919050565b6000610a2c826109ff565b9050919050565b6000610a3e82610a21565b9050919050565b610a4e81610a33565b82525050565b6000602082019050610a696000830184610a45565b92915050565b6000610a7a826109d5565b9050919050565b610a8a81610a6f565b82525050565b6000602082019050610aa56000830184610a81565b92915050565b610ab481610972565b82525050565b6000602082019050610acf6000830184610aab565b92915050565b610ade81610a6f565b8114610ae957600080fd5b50565b600081359050610afb81610ad5565b92915050565b600060208284031215610b1757610b1661096d565b5b6000610b2584828501610aec565b91505092915050565b600082825260208201905092915050565b7f4e6f7468696e6720746f20776974686472617700000000000000000000000000600082015250565b6000610b75601383610b2e565b9150610b8082610b3f565b602082019050919050565b60006020820190508181036000830152610ba481610b68565b9050919050565b6000604082019050610bc06000830185610a81565b610bcd6020830184610aab565b9392505050565b7f5370656369667920746f6b656e20616d6f756e7420746f2073656c6c00000000600082015250565b6000610c0a601c83610b2e565b9150610c1582610bd4565b602082019050919050565b60006020820190508181036000830152610c3981610bfd565b9050919050565b6000604082019050610c556000830185610a81565b610c626020830184610a81565b9392505050565b600081519050610c788161097c565b92915050565b600060208284031215610c9457610c9361096d565b5b6000610ca284828501610c69565b91505092915050565b7f436865636b20746f6b656e20616c6c6f77616e63650000000000000000000000600082015250565b6000610ce1601583610b2e565b9150610cec82610cab565b602082019050919050565b60006020820190508181036000830152610d1081610cd4565b9050919050565b7f4e487b7100000000000000000000000000000000000000000000000000000000600052601260045260246000fd5b7f4e487b7100000000000000000000000000000000000000000000000000000000600052601160045260246000fd5b6000610d8082610972565b9150610d8b83610972565b925082610d9b57610d9a610d17565b5b828204905092915050565b7f56656e646f7220646f65736e2774206861766520656e6f756768204554480000600082015250565b6000610ddc601e83610b2e565b9150610de782610da6565b602082019050919050565b60006020820190508181036000830152610e0b81610dcf565b9050919050565b6000606082019050610e276000830186610a81565b610e346020830185610a81565b610e416040830184610aab565b949350505050565b60008115159050919050565b610e5e81610e49565b8114610e6957600080fd5b50565b600081519050610e7b81610e55565b92915050565b600060208284031215610e9757610e9661096d565b5b6000610ea584828501610e6c565b91505092915050565b6000606082019050610ec36000830186610a81565b610ed06020830185610aab565b610edd6040830184610aab565b949350505050565b7f53656e642045544820746f2062757920746f6b656e7300000000000000000000600082015250565b6000610f1b601683610b2e565b9150610f2682610ee5565b602082019050919050565b60006020820190508181036000830152610f4a81610f0e565b9050919050565b6000610f5c82610972565b9150610f6783610972565b9250828202610f7581610972565b91508282048414831517610f8c57610f8b610d46565b5b5092915050565b7f56656e646f7220646f65736e2774206861766520656e6f75676820746f6b656e60008201527f7300000000000000000000000000000000000000000000000000000000000000602082015250565b6000610fef602183610b2e565b9150610ffa82610f93565b604082019050919050565b6000602082019050818103600083015261101e81610fe2565b905091905056fea2646970667358221220173eb9b3475c7190e9d5d958afec000487a68748db2cd79fbf6146a27645954064736f6c634300081c0033",
  "linkReferences": {},
  "deployedLinkReferences": {}
}